:020000040000FA
:100000008316860183121E30A0006430A1000030E8
:10001000860064006E302102031D0F281A28061482
:100020008614A10A6E302102031D112806108610C5
:1000300086161A282D302002031D202806152E288A
:100040008615A00A2D3020024920061649200612E6
:10005000031D21288611061206152E283B2006179F
:10006000A10332302102031D30283B203B20061320
:100070000611861209284530A4004530A5004630F7
:10008000A600A60B4128A50B3F28A40B3D28640021
:1000900008002B30A4002B30A5002C30A600A60BA6
:0E00A0004128A50B4B28A40B4D286400080036
:0200AE0000341C
:0200B00000341A
:00000001FF
